:020000040800F2
:10000000200C002025100008ED010008EF01000879
:10001000F3010008F7010008FB01000800000000E0
:10002000000000000000000000000000FF010008C8
:100030000102000800000000030200080502000899
:100040003F1000083F1000083F1000083F10000854
:100050003F1000083F1000083F1000083F10000844
:100060003F1000083F1000083F1000083F10000834
:100070003F1000083F1000083F1000083F10000824
:10008000AB3B00083F1000083F1000080B090008B8
:10009000210900083F1000083F1000083F10000829
:1000A0003F1000083F1000083F1000083F100008F4
:1000B0003F100008194300083F1000083F100008D7
:1000C0003F1000083F1000083F1000083F100008D4
:1000D0003F1000080D050008CB3A0008D7060008BD
:1000E0003F1000083F1000083F1000083F100008B4
:1000F0003F100008270F00083F1000083F100008BD
:100100003F1000083F1000083F1000083F10000893
:100110003F1000083F1000083F1000083F10000883
:100120003F1000083F1000083F1000083F10000873
:100130003F1000083F1000083F1000083F10000863
:100140003F1000083F1000083F1000083F10000853
:100150003F1000083F1000083F1000083F10000843
:100160003F1000083F1000083F1000083F10000833
:100170003F1000083F1000083F1000083F10000823
:100180003F1000083F100008DFF80CD004F012FC0C
:10019000004800479D010008200C002000F01CFBD7
:1001A00014E0642000F038F90948B0F9201009A0E3
:1001B00004F064FC0648B0F9221008A004F05EFCCC
:1001C0000348B0F9241007A004F058FCE9E7000048
:1001D0006003002056583A256400000056593A251D
:1001E0006400000057303A25640D0A00704700BFD4
:1001F000FEE700BFFEE700BFFEE700BFFEE7704777
:1002000070477047704700000CB5002001900090C7
:100210007648006840F480307449086000BF734835
:10022000006800F4003000900198401C0190009894
:1002300018B90198B0F5A04FF1D16C48006800F4EE
:10024000003010B10120009001E0002000900098E3
:10025000012846D165484030006840F0805063492D
:10026000403108606248006840F4404060490860DE
:100270005E48083000685D4908310860084600683B
:1002800040F4004008600846006840F4A050086050
:100290005848091F0860081F006840F08070091F57
:1002A000086000BF5148006800F000700028F9D0D5
:1002B00040F20570504908604C480830006820F052
:1002C00003004A49083108600846006840F002000F
:1002D000086000BF45480830006800F00C0008289E
:1002E000F8D10CBD10B54548006840F47000434992
:1002F00008603E48006840F001003C49086000206A
:100300003A4908310860394800683D490840374992
:1003100008603C48091D0860081F006820F4802020
:10032000091F0860002031490C310860FFF76CFF9D
:100330004FF0006031498039086010BD70B5002071
:100340000022022300240221284D08352D6805F0E3
:100350000C0020B1042806D0082834D107E02A4D2B
:100360002A4E356033E02A4D284E35602FE01F4D70
:100370002D1D2D68C5F380541C4D2D1D2D6805F0D5
:100380003F0154B1224DB5FBF1F5184E361D3668CC
:10039000C6F3881605FB06F209E01B4DB5FBF1F527
:1003A000124E361D3668C6F3881605FB06F20F4D51
:1003B0002D1D2D68C5F301456D1C6B00B2FBF3F5D7
:1003C000124E356003E0104D104E356000BF00BF87
:1003D000064D08352D68C5F303150E4E705D0B4DA7
:1003E0002D68C540094E356070BD000000380240E0
:1003F0000070004019544007003C024088ED00E0C6
:10040000FFFFF6FE103000240024F400000000205E
:1004100040787D010400002010B5002107E04AF279
:10042000104200BF131EA2F10102FBD1491C814200
:10043000F5D310BD10B5002106E0282200BF131E21
:10044000A2F10102FBD1491C8142F6D310BD00008C
:1004500000BF704700BF6F4A128802F04002002AB6
:10046000F9D0C2B26B4B9A80704710B588B0044681
:100470000121084601F07CF90121102001F0D2F998
:1004800007220921644800F060FF07220A21624820
:1004900000F05BFF4FF4C060069002208DF81C0056
:1004A0008DF81D0000208DF81E0001208DF81F0022
:1004B00006A9594800F0BEFE02940020ADF80C00D9
:1004C000ADF80E00ADF81000ADF814000C20ADF83A
:1004D000120002A94F4801F006FB01214D4801F02E
:1004E0008AFB012240F227714A4801F03AFC25209C
:1004F0008DF8040001208DF805008DF806008DF8B8
:10050000070001A800F0A5FD08B010BD10B540F22D
:100510002551404801F060FCB0B33E4801F09AFB21
:10052000C4B23E48008800F4004000284FD13B4848
:10053000008800F4804060B10A2C03D000203749C5
:10054000088044E03548008840F400403349088082
:100550003DE00D2C06D13148008840F480402F4901
:10056000088034E02D480088C0F30D002C490C545D
:100570002A480088401C2949088008460088C72866
:1005800025DD0020088022E0FFE740F227712148A6
:1005900001F022FCD8B1234802780078401C214B9E
:1005A00018702148815C1B4801F050FB1D48007801
:1005B0001E490978884205D1002240F2277115486A
:1005C00001F0CFFB40F22771124801F040FC4FF4DC
:1005D0005871104801F03BFC10BD10B5044600BF37
:1005E00080210C4801F0E2FB0028F9D0214609489F
:1005F00001F02CFB10BD70B504460D4603E02078D9
:10060000FFF7EBFF641C281EA5F101018DB2F6D1A6
:1006100070BD000000100140000002401C000020DE
:10062000D001002015000020D00000201400002080
:1006300010B588B004460121022001F099F801218B
:10064000880401F0DEF807220B214E4800F07DFE01
:1006500007220A214B4800F078FE4FF440600690D4
:1006600002208DF81C0003208DF81D0000208DF85D
:100670001E0001208DF81F0006A9424800F0DAFD97
:1006800002940020ADF80C00ADF80E00ADF810009B
:10069000ADF814000C20ADF8120002A93A4801F0A0
:1006A00022FA0121384801F0A6FA012240F2255130
:1006B000354801F056FB27208DF8040003208DF803
:1006C00005008DF8060001208DF8070001A800F054
:1006D000C0FC08B010BD10B540F225512A4801F009
:1006E0007BFB10B3284801F0B5FAC4B22748008854
:1006F00000F40040C8B92548008800F4804060B18B
:100700000A2C03D000202149088020E01F480088DF
:1007100040F400401D49088019E00D2C06D11B480B
:10072000008840F480401949088010E0174800888C
:10073000C0F30D0016490C5414480088401C13499E
:10074000088008460088C72801DD0020088010BD09
:1007500010B5044600BF80210B4801F027FB00289C
:10076000F9D02146084801F071FA10BD10B50446D1
:1007700003E02078FFF7ECFF641C20780028F8D114
:1007800010BD000000040240004800401E00002090
:10079000980200201CB50121042000F0E9FF03208D
:1007A000009001208DF8040000208DF80600012043
:1007B0008DF8070002208DF805006946054800F015
:1007C00039FD0121034800F0B1FD0221014800F08C
:1007D000ADFD1CBD0008024010B54FF4A06000F054
:1007E00033FC4FF4E130FFF740FE4FF4E130FFF708
:1007F0001FFF03F00EF9FFF7CDFF00F003F800F044
:1008000065FB10BD00B58BB00121084600F0B0FFBC
:100810000121480600F0F5FF09220B21A04800F055
:1008200094FD09220C219E4800F08FFD4FF4C0502A
:10083000029002208DF80C0002A9994800F0FAFC01
:1008400014208DF8040001208DF805008DF80600B5
:100850008DF8070001A800F0FCFB13208DF80400C0
:1008600000208DF8050001208DF806008DF80700A6
:1008700001A800F0EEFB8B4801F0F8FA08A801F09F
:1008800019FC00208DF826008DF827008DF828002F
:100890008DF829008DF82A0001208DF82B0000200A
:1008A0008DF822008DF8230008208DF82400032005
:1008B0008DF82500ADF8200008A97A4801F0EFFA7C
:1008C00000208DF81A008DF81B0001208DF81C0007
:1008D0000020ADF81000ADF81200ADF81400ADF82E
:1008E0001600ADF8180001208DF81D0004A801F0D5
:1008F00060FB012202216B4801F05AFE01221146E1
:10090000684801F055FE0BB000BD10B501216548E7
:1009100001F0B6FE18B10121624801F04CFF10BD94
:1009200000B585B002215F4801F0AAFE00287CD006
:1009300002215C4801F03FFF6A460021594801F05E
:100940001CFD40F20141009888421BD19DF80C002B
:100950009DF80B1040EA0120404201B25248418408
:100960009DF80E109DF80D0041EA002000B24E499E
:1009700008849DF810109DF80F0041EA002001B294
:100980004948818440F201210098884211D19DF8A4
:100990000C009DF80B1040EA012000B2424908808B
:1009A0009DF80E109DF80D0041EA002000B23E496E
:1009B000088140F202210098884211D19DF80C0074
:1009C0009DF80B1040EA012000B2374948809DF89D
:1009D0000E109DF80D0041EA002001B2324841811D
:1009E00040F203210098884211D19DF80C009DF837
:1009F0000B1040EA012000B22B4988809DF80E10B0
:100A00009DF80D0041EA002001B22748818100983D
:100A1000B0F5017F13D19DF80C009DF80B1040EA52
:100A2000012000B22049C88000E008E09DF80E10C7
:100A30009DF80D0041EA002001B21B48C18105B0BC
:100A400000BDF0B585B004460D4616461F464FF46E
:100A50000070009000208DF809008DF80800082033
:100A60008DF80A00200A8DF80B00E1B28DF80C1009
:100A7000290A8DF80D10E9B28DF80E10310A8DF8A3
:100A80000F10F1B28DF81010390A8DF81110F9B26B
:100A90008DF812106946034801F07AFB05B0F0BDED
:100AA00000000240006400406003002070B52DED9E
:100AB0000C8B04460D461646304603F011FE41EC01
:100AC0001C0B9FED4D0B53EC102B03F028FD41EC5C
:100AD0001A0B281903F004FE41EC1B0B53EC1A2BE4
:100AE00003F076FC41EC190B9FED450B53EC102BFA
:100AF00003F087FD41EC180B03F003FE00B24249FE
:100B00000883304603F0ECFD41EC1D0B9FED3A0BE2
:100B100053EC102B03F003FD41EC1B0B281B03F0DF
:100B2000DFFD41EC1C0B53EC1B2B03F0F2FC41EC02
:100B30001A0B81F0004141EC190B9FED310B53EC86
:100B4000102B03F05EFD41EC180B03F0DAFD01B24F
:100B50002D484183304603F0C3FD41EC1D0B9FED52
:100B6000260B53EC102B03F0DAFC41EC1B0B28197D
:100B700003F0B6FD41EC1C0B53EC1B2B03F0C9FC3E
:100B800041EC1A0B81F0004141EC190B9FED1C0B5D
:100B900053EC102B03F035FD41EC180B03F0B1FDC5
:100BA00001B219488183304603F09AFD41EC1C0BD9
:100BB0009FED110B53EC102B03F0B1FC41EC1A0B21
:100BC000281B03F08DFD41EC1B0B53EC1A2B03F09B
:100BD000FFFB41EC190B9FED0A0B53EC102B03F0BC
:100BE00010FD41EC180B03F08CFD01B20648C183E7
:100BF000BDEC0C8B70BD0000BC7493180456D63F3E
:100C000052B81E85EB51F83F600300200246AA4807
:100C100090ED040A80ED050A90ED030A80ED040AC8
:100C2000881A00EE100AB8EEC00AA34880ED030A45
:100C300090ED030AD0ED040A30EE600AD0ED000A10
:100C400020EE200AD0ED010A90ED031A00EE810A91
:100C5000D0ED030A90ED041AF0EE001A41EEC10A3D
:100C600090ED051A70EE810A90ED021A01EE200A4D
:100C7000BDEEC00A10EE100A00B28F4B1883184662
:100C8000B0F91800642801DD64200BE08A48B0F94F
:100C9000180010F1640F02DA6FF0630002E086487A
:100CA000B0F91800844B18831846B0F91800704743
:100CB0000246824890ED040A80ED050A90ED030A91
:100CC00080ED040A881A00EE100AB8EEC00A7B48CC
:100CD00080ED030A90ED030AD0ED040A30EE600ABD
:100CE000D0ED000A20EE200AD0ED010A90ED031AA3
:100CF00000EE810AD0ED030A90ED041AF0EE001A1E
:100D000041EEC10A90ED051A70EE810A90ED021ACB
:100D100001EE200ABDEEC00A10EE100A00B2674BC9
:100D200018831846B0F91800642801DD64200BE030
:100D30006248B0F9180010F1640F02DA6FF0630036
:100D400002E05E48B0F918005C4B18831846B0F911
:100D50001800704702465A4890ED040A80ED050AD3
:100D600090ED030A80ED040A881A00EE100AB8EE2E
:100D7000C00A534880ED030A90ED030AD0ED040A3F
:100D800030EE600AD0ED000A20EE200AD0ED010A14
:100D900090ED031A00EE810AD0ED030A90ED041ADB
:100DA000F0EE001A41EEC10A90ED051A70EE810ACC
:100DB00090ED021A01EE200ABDEEC00A10EE100AF4
:100DC00000B23F4B18831846B0F91800642801DDC3
:100DD00064200BE03A48B0F9180010F1640F02DA11
:100DE0006FF0630002E03648B0F91800344B188306
:100DF0001846B0F9180070470246324890ED040AD0
:100E000080ED050A90ED030A80ED040A881A00EED1
:100E1000100AB8EEC00A2B4880ED030A90ED030AD1
:100E2000D0ED040A30EE600AD0ED000A20EE200A70
:100E3000D0ED010A90ED031A00EE810AD0ED030A0D
:100E400090ED041AF0EE001A41EEC10A90ED051A79
:100E500070EE810A90ED021A01EE200ABDEEC00A82
:100E600010EE100A00B2174B18831846B0F918009C
:100E7000642801DD64200BE01248B0F9180010F17D
:100E8000640F02DA6FF0630002E00E48B0F9180058
:100E90000C4B18831846B0F9180070470146B1F59D
:100EA0007A6F02DD4FF47A60704711F57A6F01DADC
:100EB0000548F9E70846F7E7200000203C0000203D
:100EC000580000207400002060F0FFFF1FB50121D2
:100ED000080200F096FC40F2E73002905320ADF893
:100EE00004000020ADF80600ADF80C0001A924486C
:100EF00001F035FF01221146214802F0D1FB01210A
:100F00001F4801F0B5FF2D208DF8000001208DF85D
:100F1000010003208DF8020001208DF803006846CF
:100F200000F097F81FBD10B516480068401C154921
:100F300008600121124802F0CAFB01281FD10121DB
:100F40000F4802F0D5FB00F021F803F060F90D48DE
:100F5000006840F6B831884204D101210A4800F007
:100F6000E5F90CE00748006841F27071884206D14B
:100F70000020044908600121034800F0D9F910BDA0
:100F800000200040900000200008024010B5244BD3
:100F9000B3F92420B3F92210B3F92000FFF786FD3E
:100FA0001F4AB2F91810B2F90800FFF72FFE1C49CA
:100FB000098A084400B21A4908820A46B2F91A108E
:100FC000B2F90A00FFF774FE1549498A084401B2D4
:100FD000134841820246B2F91C10B2F90C00FFF727
:100FE000B9FE0F49898A084401B20D488182024640
:100FF000B2F91E10B2F90E00FFF7FEFE0849C98AC9
:10100000084401B20648C1820446B4F91630B4F966
:101010001420B4F91210B4F91000FFF712FD10BD3E
:10102000600300200648804706480047FEE7FEE7C9
:10103000FEE7FEE7FEE7FEE7FEE7FEE7FEE7FEE788
:10104000E50200088901000832490143324A116073
:10105000704770B5002100230F22C4781CB32E4CBA
:10106000246804F4E064C4F5E064C4F30721C1F12A
:101070000404E3B20A4144789C40E1B2847814400D
:1010800021430C07210E254C05786155047804F0A6
:101090001F050124AC4005786D11AD0005F1E02578
:1010A000C5F8004109E0047804F01F050124AC40B4
:1010B0001B4D0678761145F8264070BD194A0A4046
:1010C0000243154B1B1F1A60704739B1124A121D9B
:1010D00012680243104B1B1D1A6006E00E4A121DD7
:1010E000126882430C4B1B1D1A607047042808D1FC
:1010F0004FF0E021096941F004014FF0E022116155
:1011000007E04FF0E021096921F004014FF0E022EF
:10111000116170470000FA050CED00E000E400E00A
:1011200080E100E080FFFF1F10B50446984884422C
:1011300008D10121084600F086FB0021012000F0C3
:1011400082FB76E09348844208D10121022000F01E
:101150007AFB0021022000F076FB6AE08E48844290
:1011600008D10121042000F06EFB0021042000F0D2
:101170006AFB5EE08948844208D10121082000F022
:1011800062FB0021082000F05EFB52E084488442AC
:1011900008D10121102000F056FB0021102000F0A2
:1011A00052FB46E07F48844208D10121202000F014
:1011B0004AFB0021202000F046FB3AE07A488442B6
:1011C00008D10121402000F03EFB0021402000F02A
:1011D0003AFB2EE07548844208D10121802000F0BE
:1011E00032FB0021802000F02EFB22E07048844278
:1011F00008D10121801500F026FB0021A01500F088
:1012000022FB16E06B48844208D10121401500F012
:101210001AFB0021601500F016FB0AE066488442C4
:1012200007D10121001500F00EFB0021201500F070
:101230000AFB10BDF0B50A4600210023002400BFC0
:101240003DE0012505FA01F3156805EA03049C4217
:1012500034D105684F000326BE40B54305601579BB
:101260004E00B5400668354305601579012D02D062
:101270001579022D16D185684F000326BE40B5436F
:10128000856055794E00B540866835438560456870
:1012900001268E40B5434560456896798E40B6B2CA
:1012A00035434560C5684F000326BE40B543C56061
:1012B000D5794E00B540C6683543C560491C102934
:1012C000BFD3F0BD4FF6FF71016000210171417184
:1012D0008171C171704708B54FF480320092009A55
:1012E0000A430092009AC261C161009AC261C26958
:1012F0000092C269009208BD0246002013690B40AB
:101300000BB1012000E0002070470146086980B25F
:1013100070470246002053690B400BB1012000E0EA
:10132000002070470146486980B2704701837047CA
:10133000418370470AB1018300E0418370474161F6
:10134000704742694A4042617047F0B5002300246B
:101350004D07ED0E02FA05F3CE1000F1200555F809
:1013600026504E07F70E0F26BE40B543CF1000F1B2
:10137000200646F82750CE1000F1200555F82650DB
:1013800045EA0304CE1000F1200545F82640F0BDE3
:10139000000002400004024000080240000C02402D
:1013A000001002400014024000180240001C0240DD
:1013B000002002400024024000280240F948006852
:1013C00040F00100F74908600020F6490831086044
:1013D000F4480068F4490840F2490860F348091DE0
:1013E0000860F348EF4984310860F0481038091D5F
:1013F0000860EC48006820F48020EA49086000207A
:10140000E8490C310860E7498C31086070470021D9
:10141000E44A921C117011460870704710B50146DD
:101420000022002300204A11012A02D1DD4C23684A
:1014300008E0022A03D1DB4C7034236802E0D94C67
:101440007434236801F01F02012494401C400CB145
:10145000012000E0002010BD38B5002000900024DD
:10146000002500BF3120FFF7D9FF05460098401C3A
:1014700000900098B0F5A04F01D0002DF2D031209F
:10148000FFF7CCFF08B1012400E00024204638BD5E
:1014900001460020C34A106820F0F80040EAC1006D
:1014A00010607047C349086070470021BD4A703220
:1014B00011701170012802D004280AD104E0012122
:1014C000B84A7032117005E00521B64A70321170C9
:1014D00000E000BF00BF7047B7490860704770B5B3
:1014E000049C41EA82150126C6EB530645EA0645EF
:1014F000054345EA0465AB4E361D356070BDAD4908
:1015000008667047820142EA0172A64B84331A6072
:101510007047A8498866704710B5830143EA0163A4
:1015200043EA02739F4C8834236010BDA1490867C9
:101530007047A049C864704702460020994B0833A1
:10154000186820F0EC6042EA01031843954B083319
:101550001860704702460020924B0833186820F04C
:10156000784042EA010318438E4B083318607047F5
:10157000014600208B4A0832106820F0030008431F
:101580001060704787480830006800F00C00704712
:1015900001460020834A0832106820F0F00008431A
:1015A00010607047014600207E4A0832106820F41F
:1015B000E05008431060704701460020794A083225
:1015C000106820F4604040EAC10010607047F0B538
:1015D000002100220024022500260223714F083733
:1015E0003F6807F00C0121B1042905D0082937D143
:1015F00005E0724F076036E0714F076033E0694FD6
:101600003F1D3F68C7F38056664F3F1D3F6807F098
:101610003F036EB16A4FB7FBF3F7DFF888C10CF1F7
:10162000040CDCF800C0CCF3881C07FB0CF40CE0C5
:10163000624FB7FBF3F7DFF86CC10CF1040CDCF878
:1016400000C0CCF3881C07FB0CF4564F3F1D3F68CD
:10165000C7F301477F1C7D00B4FBF5F7076002E08C
:10166000564F076000BF00BF4E4F08373F6807F076
:10167000F0010909534F7A5C0768D7404760494F2A
:1016800008373F6807F4E051890A4E4F7A5C476893
:10169000D7408760434F08373F6807F46041490BE4
:1016A000484F7A5C4768D740C760F0BD002100F41E
:1016B0004072B2F5407F0AD13A4A0832116821F4EB
:1016C000F811414A02401143364A08321160354A46
:1016D00070321268C0F30B031A43324B70331A6036
:1016E00070473549443908607047334940390860CC
:1016F000704736490860704701460020294A8C32FD
:10170000106820F01F004A1E1043264A8C321060D9
:10171000704701460020234A8C32106820F4F850AC
:101720004A1E40EA02201F4A8C3210607047014670
:1017300000201C4A8C32106820F4401008431060CE
:10174000704701460020174A8C32106820F4400090
:1017500008431060704701460020124A8C3210681E
:1017600020F4403008431060704719490860704702
:1017700039B10C4A3032126802430A4B30331A60D6
:1017800006E0084A303212688243064B30331A6052
:101790007047F9B1034A343212680243014B3433C3
:1017A0001A601CE000380240FFFFF6EA1030002407
:1017B0000030002000004742800E47420024F40021
:1017C00040787D0194000020FFFCFF0F5C01474240
:1017D000E01147428F4A126882438E4B1A6070476D
:1017E00039B18C4A121D126802438A4B1B1D1A60C4
:1017F00006E0884A121D12688243864B1B1D1A6040
:10180000704739B1834A0C3212680243814B0C3362
:101810001A6006E07F4A0C32126882437D4B0C331B
:101820001A60704739B17B4A103212680243794B13
:1018300010331A6006E0774A103212688243754B03
:1018400010331A60704739B1724A243A1268024361
:10185000704B243B1A6006E06E4A243A12688243B9
:101860006C4B243B1A60704739B16A4A203A1268BF
:101870000243684B203B1A6006E0664A203A126831
:101880008243644B203B1A60704739B1614A1C3A6D
:10189000126802435F4B1C3B1A6006E05D4A1C3A2B
:1018A000126882435B4B1C3B1A60704739B1594A3E
:1018B000143A12680243574B143B1A6006E0554A2B
:1018C000143A12688243534B143B1A60704739B183
:1018D000504A103A126802434E4B103B1A6006E021
:1018E0004C4A103A126882434A4B103B1A607047C8
:1018F00039B1484A1C3212680243464B1C331A6005
:1019000006E0444A1C3212688243424B1C331A6080
:10191000704739B13F4A2032126802433D4B2033B1
:101920001A6006E03B4A203212688243394B20336A
:101930001A60704739B1374A243212680243354B76
:1019400024331A6006E0334A243212688243314B52
:1019500024331A60704739B12E4A2C321268024380
:101960002C4B2C331A6006E02A4A2C321268824330
:10197000284B2C331A60704739B1264A303212682E
:101980000243244B30331A6006E0224A3032126898
:101990008243204B30331A607047012808D11D491B
:1019A0003C31096841F008011A4A3C32116007E0F5
:1019B00018493C31096821F00801164A3C3211608F
:1019C000704739B1134A273A12780243114B273B2B
:1019D0001A7006E00F4A273A127882430D4B273BD4
:1019E0001A7070470B484030006840F08070094919
:1019F00040310860704701460020064A283A1268C4
:101A00000A400AB1012000E0002070470149263950
:101A1000087070473438024010B50446FA488442D2
:101A200008D101211020FFF752FF00211020FFF7FD
:101A30004EFF57E0F548844209D101214804FFF7E1
:101A400035FF00214FF40030FFF730FF4AE0F04847
:101A5000844209D101218804FFF728FF00214FF4B7
:101A60008020FFF723FF3DE0EA48844209D10121AD
:101A7000C804FFF71BFF00214FF40020FFF716FFFB
:101A800030E0E548844209D101210805FFF70EFF47
:101A900000214FF48010FFF709FF23E0DF48844264
:101AA00008D101212020FFF712FF00212020FFF79D
:101AB0000EFF17E0DA48844209D101218807FFF7B9
:101AC000F5FE00214FF08040FFF7F0FE0AE0D54818
:101AD000844207D101214005FFF7E8FE002160059F
:101AE000FFF7E4FE10BD2DE9FF4705460E46002432
:101AF000A14600BFA046B08900B100BF2C8A24F4E3
:101B00004054F08804432C82AC8941F20C60844339
:101B1000B08831890843718908430443AC81AC8A99
:101B200024F44074B0890443AC826846FFF74FFD4B
:101B3000B548854202D0B948854202D1DDF80C9003
:101B400001E0DDF80890A88900F4004040B109EBFD
:101B5000C90000EB091031684900B0FBF1F707E05C
:101B600009EBC90000EB091031688900B0FBF1F7FF
:101B70006420B7FBF0F004012009642101FB107818
:101B8000A88900F4004040B1322000EBC800B0FB4F
:101B9000F1F000F00700044308E0322000EB0810E9
:101BA0006421B0FBF1F000F00F0004432C81BDE88C
:101BB000FF874FF41651016000218180C1800181AF
:101BC0000C21418100218181704710B5024600201F
:101BD000108A20F470600B884C8823438C88234340
:101BE000CC8823431843108210BD0021018041801E
:101BF0008180C180704721B1828942F40052828184
:101C000004E082894DF6FF731A4082817047028B8F
:101C100002F47F420283028B0A430283704721B1A0
:101C2000828942F40042828103E08289C2F30E027B
:101C30008281704721B1828A42F40062828204E08C
:101C4000828A4FF2FF731A4082827047C1F3080202
:101C50008280704701468888C0F308007047028A76
:101C60004FF6F0731A400282028A0A4302827047DA
:101C700021B1828942F00202828104E082894FF61A
:101C8000FD731A408281704782894FF2FF731A40B8
:101C9000828182890A4382817047028A4FF6DF730C
:101CA0001A400282028A0A430282704721B1028AE4
:101CB00042F48042028204E0028A4BF6FF731A402B
:101CC00002827047818941F001018181704721B111
:101CD000828A42F00802828204E0828A4FF6F77319
:101CE0001A4082827047028BD2B20283028B42EA90
:101CF00001220283704721B1828A42F0200282824F
:101D000004E0828A4FF6DF731A408282704721B165
:101D1000828A42F01002828204E0828A4FF6EF73D8
:101D20001A4082827047828A4FF6FB731A40828281
:101D3000828A0A438282704721B1828A42F002027B
:101D4000828204E0828A4FF6FD731A4082827047D5
:101D50001AB1838A0B43838202E0838A8B43838296
:101D60007047F0B50346002400260025002040F609
:101D70006A17B94200D100BF1846C1F3421401F0FE
:101D80001F06012707FA06F5012C01D10C3004E0EB
:101D9000022C01D1103000E014301AB107682F4333
:101DA000076002E00768AF430760F0BD024600200D
:101DB000B1F5007F00D100BF13880B400BB10120AB
:101DC00000E00020704701F40072B2F5007F00D1FE
:101DD00000BFCA430280704770B50246002400234A
:101DE0000025002040F66A16B14200D100BFC1F3C1
:101DF000421501F01F03012606FA03F3012D13D14A
:101E00009689334017E00000001001400044004074
:101E100000480040004C00400050004000140140C9
:101E200000780040007C0040022D02D1168A334029
:101E300001E0968A33400C12012606FA04F4168853
:101E4000344013B10CB1012000E0002070BD10B58A
:101E50000022002340F66A14A14200D100BF0A12FA
:101E600001249440A3B2DC43048010BD10B50446A5
:101E7000FE48844209D101214806FFF717FD0021E1
:101E80004FF00070FFF712FD08E001218806FFF710
:101E90000DFD00214FF08060FFF708FD10BD30B54B
:101EA000024600200023146824F002041460146821
:101EB00044F00104146000E05B1C546804F0010469
:101EC0001CB94FF6FF74A342F6D1546804F0010424
:101ED0000CB900206CE08C79012C04D1146844F01A
:101EE0008004146003E0146824F080041460CC794A
:101EF000012C04D1146844F04004146003E0146819
:101F000024F0400414600C7A012C04D1146844F0CD
:101F10002004146003E0146824F0200414604C7A58
:101F2000012C04D1146844F01004146003E0146818
:101F300024F0100414608C7A012C04D1146844F04D
:101F40000804146003E0146824F008041460CC7AD8
:101F5000012C04D1146844F00404146003E01468F4
:101F600024F0040414608C78A407CD7844EA056456
:101F70000D7944EA05444D7944EA05540D886D1EF7
:101F80002C43D461146824F001041460002300E0A1
:101F90005B1C546804F001041CB14FF6FF74A342AB
:101FA000F6D1546804F001040CB1002000E00120D7
:101FB00030BD10B50021837A012202FA03F1AC4A48
:101FC000126842F00102AA4B1A60A94A1C32126838
:101FD0008A43A74B1C331A60027BCAB9A44A0C324D
:101FE00012688A43A24B0C331A604288C38842EAC3
:101FF00003439F4A4032847A42F83430028883880F
:1020000042EA03439A4A4032847A02EBC4025360A4
:10201000027B012A19D1964A0C3212680A43944B6A
:102020000C331A604288038842EA0343904A4032E4
:10203000847A42F83430C288838842EA03438C4A67
:102040004032847A02EBC4025360C27A3AB9884AB9
:10205000121D12688A43864B1B1D1A6006E0844AD3
:10206000121D12680A43824B1B1D1A60028932B985
:102070007F4A143212688A437D4B14331A600289F6
:10208000012A06D17A4A143212680A43784B143373
:102090001A60427B012A06D1754A1C3212680A4333
:1020A000734B1C331A60724A126822F00102704BA3
:1020B0001A6010BD00218171C1710172417281727B
:1020C000C1728170C170032101710221417101212E
:1020D000018070476649096841F00101644A116056
:1020E0001146096843F60E729143614A1160114628
:1020F000096841EA002111601146096821F00101D7
:102100001160704721B1026842F48032026003E03E
:10211000026822F4803202607047E1B1026842F046
:10212000800202604FF4C272125842F480734FF47E
:10213000C27213504FF4CA72125842F480734FF4B3
:10214000CA7213504FF4D272125842F480734FF493
:10215000D27213501BE0026822F0800202604FF43A
:10216000C272125822F480734FF4C27213504FF4AB
:10217000CA72125822F480734FF4CA7213504FF48B
:10218000D272125822F480734FF4D27213507047F7
:1021900010B502460020936803F08063B3F1806FAE
:1021A00000D110E0936803F00063B3F1006F01D138
:1021B000012008E0936803F08053B3F1805F01D100
:1021C000022000E00420042879D002F5C07303EB5C
:1021D00000131B6803F0010402F5C07303EB001346
:1021E0001C600B7A7BB94B7A0C8843EA445302F5A6
:1021F000C07404EB00142468234302F5C07404EB9C
:102200000014236010E00B7A4C6843EAC4034C7A54
:10221000234302F5C07404EB00142468234302F541
:10222000C07404EB001423608B7A03F00F038B72ED
:1022300002F5C07303EB00135B6823F00F0402F593
:10224000C07303EB00135C6002F5C07303EB001373
:102250005B688C7A234302F5C07404EB001463605E
:102260008B7B1C064B7B44EA034403E00064004084
:10227000006600400B7B44EA0323CC7A234302F53B
:10228000C07404EB0014A3608B7C1C064B7C44EAF6
:1022900003440B7C44EA0323CC7B234302F5C07444
:1022A00004EB0014E36002F5C07303EB00131B683A
:1022B00043F0010402F5C07303EB00131C6010BD72
:1022C00010B50246002321B1012907D002290FD100
:1022D00009E09068F94C00EA04030BE09068F84CC0
:1022E00000EA040306E09068F64C00EA040301E00B
:1022F000002300BF00BFF44C181BA34216D007DC1C
:1023000083B16FF08060184470B1022818D111E0D9
:10231000B0F5007F10D0ED4C204448B1B0F5003F3F
:102320000ED10BE002230DE000230BE0002309E0B7
:10233000002307E0012305E0012303E0012301E07E
:10234000002300BF00BFD8B210BD21B1012907D0C2
:1023500002290FD109E0826842F0800282600AE01F
:10236000826842F40042826005E0826842F4000222
:10237000826000E000BF00BF704710B500F5D87361
:1023800003EB01131B6803F004031372137A53B9B0
:1023900000F5D87303EB01131B6840F2FF7404EAE5
:1023A0005353136009E000F5D87303EB01131B6866
:1023B0006FF0604404EAD303536000F5D87303EB75
:1023C00001131B6803F00203537200F5D87303EB8B
:1023D00001135B6803F00F03937200F5D87303EBEE
:1023E00001135B681B0AD37400F5D87303EB011368
:1023F0009B68D37200F5D87303EB01139B681C0A2A
:10240000147300F5D87303EB01139B681C0C547311
:1024100000F5D87303EB01139B681B0E937300F553
:10242000D87303EB0113DB68D37300F5D87303EBA8
:102430000113DB681C0A147400F5D87303EB011355
:10244000DB681C0C547400F5D87303EB0113DB68D4
:102450001B0E937421B9C36843F02003C36003E0EB
:10246000036943F02003036110BD21B9C26842F043
:102470002002C26003E0026942F02002026170475C
:102480000246002019B9D36803F0030006E00129D1
:1024900003D1136903F0030000E00020704710B57A
:1024A00002460B4600204FF6FF71BBB9146824F0BA
:1024B000020444F00104146000E0491E546804F072
:1024C0000304012C01D00029F7D1546804F003045F
:1024D000012C01D0002032E0012030E0012B13D18B
:1024E000146824F00304146000E0491E546804F0EA
:1024F00003040CB10029F8D1546804F003040CB1B2
:1025000000201CE001201AE0022B17D1146824F0EF
:10251000010444F00204146000E0491E546804F011
:102520000304022C01D00029F7D1546804F00304FD
:10253000022C01D0002002E0012000E0002010BDAC
:10254000014600200A6822F0010242F002020A60FD
:102550004A6802F00302022A00D1012070470146B6
:102560004FF6FF7200200B6823F002030B6000E0BF
:10257000521E4B6803F00203022B01D1002AF7D14F
:102580004B6803F00203022B00D001207047014684
:1025900000208A6902F070007047014600208A69B5
:1025A000100E7047014600208A69C2F30740704749
:1025B0001AB143690B43436102E043698B434361B2
:1025C000704710B50246002001F4700343B19369CF
:1025D000C1F3130423400BB101202DE000202BE0B8
:1025E00001F0807343B15368C1F3130423400BB16E
:1025F000012021E000201FE001F0006343B1936857
:10260000C1F3130423400BB1012015E0002013E0B7
:1026100001F0007343B1D368C1F3130423400BB13D
:10262000012009E0002007E01369C1F313042340EF
:102630000BB1012000E0002010BD0022244B994284
:1026400002D10023836111E0C1F3130201F0007392
:102650000BB1C2600AE001F080630BB1026105E0DA
:1026600001F000630BB1826000E0426070470246F7
:10267000002002EA01030BB1012000E000207047B6
:1026800070B504460D46002660692840002872D0C7
:10269000B5F5807F69D01DDC082D42D006DC012D08
:1026A0002DD0022D31D0042D7FD134E0102D3ED01D
:1026B000202D42D0402D78D145E0000003000004D9
:1026C0000003000800000310000100080001FFF7EC
:1026D0007000F030B5F5004F61D009DCB5F5007F32
:1026E0004AD0B5F5806F4DD0B5F5006F5DD150E0A3
:1026F000B5F5803F2DD0B5F5003F56D12FE0A0684D
:102700005549FFF7B4FF064651E0E0680321FFF7A3
:10271000AEFF06464BE0E0680821FFF7A8FF06463B
:1027200045E0E0681021FFF7A2FF06463FE0206980
:102730000321FFF79CFF064639E020690821FFF7D7
:1027400096FF064633E020691021FFF790FF06460A
:102750002DE060680821FFF78AFF064627E06068E1
:102760001021FFF784FF064621E0A0690121FFF751
:102770007EFF06461BE01BE0A0690221FFF777FF02
:10278000064614E0A0690421FFF771FF06460EE03B
:102790000BE0A0697021FFF76AFF064607E060685A
:1027A0000421FFF764FF064601E0002600BF00E0B9
:1027B0000026304670BDB1F5007F3AD00FDC2029ED
:1027C00028D006DC01291CD004291DD0082940D1BD
:1027D0001DE0402921D0B1F5807F3AD126E0B1F546
:1027E000004F31D006DCB1F5806F25D0B1F5006F18
:1027F0002FD124E0B1F5803F12D0B1F5003F28D1B0
:1028000011E0154A826025E00822C26022E0102211
:10281000C2601FE0082202611CE01022026119E080
:102820000822426016E01022426013E00422426057
:1028300010E0042242600DE0042242600AE000221F
:1028400082610422426005E000228261042242602B
:1028500000E000BF00BF704701010100016821F0E6
:10286000010101600021016041608160C16001617E
:1028700021214161DB49884204D13D21D94A103AE6
:1028800091608CE0D7491831884205D14FF47461CA
:10289000D44A103A916082E0D2493031884205D161
:1028A0004FF47411CF4A103A916078E0CD49483125
:1028B000884205D14FF07461CA4A103A91606EE0C7
:1028C000C8496031884204D1C749C64A103AD1602C
:1028D00065E0C4497831884204D1C449C14A103AFC
:1028E000D1605CE0BF499031884204D1C049BD4A03
:1028F000103AD16053E0BB49A831884205D14FF06E
:102900003D51B84A103AD16049E0BA49884204D1F1
:102910003D21B84A083A116041E0B6491831884271
:1029200005D14FF47461B34A083A116037E0B149F8
:102930003031884205D14FF47411AE4A083A116023
:102940002DE0AC494831884205D14FF07461A94A65
:10295000083A116023E0A7496031884204D1A249B6
:10296000A44A121F11601AE0A2497831884204D1AA
:102970009E49A04A121F116011E09E499031884281
:1029800004D19B499B4A121F116008E09949A83164
:10299000884204D14FF03D51964A121F1160704792
:1029A00010B500220268944B1A40CC680B68234390
:1029B0004C6923438C692343CC6923430C6A23432A
:1029C0004C6A23438C6A23434C6B23438C6B234315
:1029D0001A430260426922F00702D1E90B34234313
:1029E0001A4342610B6943604B6883608B68C36024
:1029F00010BD0021016041608160C16001614161E1
:102A00008161C161016241628162C16201634163AE
:102A10008163704721B1026842F00102026003E065
:102A2000026822F001020260704721B1026842F49C
:102A30000042026003E0026822F400420260704734
:102A400021B1026842F02002026003E0026822F035
:102A5000200202607047416070470146486880B2BA
:102A6000704722B1036843F40023036003E0036866
:102A700023F4002303600161704721B1026842F42E
:102A80008022026003E0026822F480220260704724
:102A90000AB1016100E0C1607047014600200A6888
:102AA00002F400220AB1012000E000207047014634
:102AB00000200A6802F001020AB1012000E00020B3
:102AC0007047014600204A6902F03800704730B56F
:102AD00003460A4600200024464DAB4202D241493B
:102AE000103901E04349103902F000550DB14C682E
:102AF00000E00C68414D2C4004EA02050DB10120B4
:102B000000E0002030BD02463A4B9A4202D23548DE
:102B1000103801E03748103801F000531BB1374B33
:102B20000B40C36002E0354B0B408360704710B52B
:102B300001F080034BB122B1436943F0800343614C
:102B400003E0436923F08003436180290BD02AB15D
:102B5000036801F01E042343036004E0036801F0EE
:102B60001E04A343036010BD70B50246002000247C
:102B70000025204EB24202D21A4B103B01E01D4B01
:102B8000103B1F4E0E4036B11E2606EAD1241668B1
:102B900006EA040502E0566906F0800501F00056D9
:102BA0000EB15C6800E01C68144E344004EA010673
:102BB00016B10DB1012000E0002070BD02460D4BA2
:102BC0009A4202D20748103801E00A48103801F052
:102BD00000531BB1094B0B40C36002E0074B0B4095
:102BE00083607047106002403D000020400F0020CD
:102BF00000003D20106402403F801CF07D0F7D0FDF
:102C00003C0F3C0F10B50446FE48844208D1012118
:102C10000846FEF75CFE00210120FEF758FE9DE00D
:102C2000B4F1804F08D101210846FEF73FFE002194
:102C30000120FEF73BFE91E0F348844208D10121D8
:102C40000220FEF733FE00210220FEF72FFE85E072
:102C5000EE48844208D101210420FEF727FE00211E
:102C60000420FEF723FE79E0E948844208D10121DF
:102C70000820FEF71BFE00210820FEF717FE6DE07E
:102C8000E448844208D101211020FEF70FFE002104
:102C90001020FEF70BFE61E0DF48844208D10121DD
:102CA0002020FEF703FE00212020FEF7FFFD55E067
:102CB000DA48844208D101210220FEF708FE0021F3
:102CC0000220FEF704FE49E0D548844209D10121E3
:102CD0000804FEF7FCFD00214FF48030FEF7F7FDFD
:102CE0003CE0D048844209D101214804FEF7EFFDC1
:102CF00000214FF40030FEF7EAFD2FE0CA4884427D
:102D000009D101218804FEF7E2FD00214FF4802063
:102D1000FEF7DDFD22E0C548844208D101214020B4
:102D2000FEF7C4FD00214020FEF7C0FD16E0C048BC
:102D3000844208D101218020FEF7B8FD00218020C7
:102D4000FEF7B4FD0AE0BB48844207D1012180159B
:102D5000FEF7ACFD0021A015FEF7A8FD10BD002276
:102D60000288A84B98420ED0AC4B98420BD0B0F1E1
:102D7000804F08D0A44B984205D0A44B984202D073
:102D8000A34B984204D14FF68F731A404B881A43D5
:102D9000A04B984207D0A04B984204D04FF6FF4377
:102DA0001A400B891A4302804B68C3620B88038563
:102DB000944B984202D0994B984201D18B7A03866A
:102DC0000123838270474FF0FF3141600021018071
:102DD00001814180817270470185828270470A4675
:102DE000002101884FF68F7319401143018070470D
:102DF00041627047C16270470146486A70470146A8
:102E0000088D704721B1028842F00202028004E07E
:102E100002884FF6FD731A400280704721B1028884
:102E200042F00402028004E002884FF6FB731A406D
:102E30000280704721B1028842F08002028004E0E3
:102E400002884FF67F731A400280704702884FF65F
:102E5000F7731A40028002880A4302807047028892
:102E60004FF6FF431A40028002880A4302807047EF
:102E700021B1028842F00102028004E002884FF68C
:102E8000FE731A400280704770B5002400220023B0
:102E9000058C4FF6FE7635400584028C8388048BC2
:102EA0004FF68F752C40B51E2C400D882C43751E97
:102EB0002A408D892A434D882A43524DA84202D088
:102EC000564DA84213D14FF6F7752A40CD892A43B3
:102ED0004FF6FB752A408D882A434FF6FF652B403D
:102EE0004FF6FF552B400D8A2B434D8A2B43838091
:102EF00004838D684563028470BD70B50024002290
:102F00000023058C4FF6EF7635400584028C8388CC
:102F1000048B48F6FF752C404FF6FF452C400D887A
:102F20004FF6FF7606EA05252C434FF6DF752A405B
:102F30008D8906EA05152A434D8806EA05152A43B8
:102F4000304DA84202D0354DA8421DD14FF67F75B5
:102F50002A40CD894FF6FF7606EA05152A434FF63B
:102F6000BF752A408D8806EA05152A434FF6FF35BE
:102F70002B404FF2FF752B400D8A06EA85052B4347
:102F80004D8A06EA85052B43838004838D6885631B
:102F9000028470BD70B5002400220023058C4FF61A
:102FA000FF6635400584028C8388848B4FF68F75CD
:102FB0002C404FF6FC752C400D882C434FF6FF55E6
:102FC0002A408D894FF6FF7606EA05252A434D886B
:102FD00006EA05252A430B4DA84202D00F4DA84210
:102FE00038D14FF2FF752A40CD894FF6FF7606EAB9
:102FF00005252A434FF6FF352A408D8806EA052528
:103000002A4319E00000014000040040000800408D
:10301000000C00400010004000140040000401407B
:1030200000400140004401400048014000180040B9
:10303000001C0040002000404EF6FF752B404DF66E
:10304000FF752B400D8A06EA05152B434D8A06EACB
:1030500005152B43838084838D68C563028470BD0E
:1030600070B5002200230024058C4EF6FF76354013
:103070000584038C8488828B48F6FF752A404FF6BE
:10308000FF452A400D884FF6FF7606EA05252A43BC
:103090004DF6FF752B408D8906EA05352B434D888B
:1030A00006EA05352B43FE4DA84202D0FD4DA8424D
:1030B00008D14BF6FF752C400D8A4FF6FF7606EAD5
:1030C00085152C43848082838D680564038470BDDC
:1030D000002101804180818081608181C1810182E4
:1030E0004182704770B5034600200024184618300E
:1030F00001258D40ACB21D8CA5431D8409B1082962
:103100000AD100EB610005684FF68F763540056007
:103110000568154305600FE00D1FC5F34E052844F3
:10312000056848F6FF763540056005684FF6FF767E
:1031300006EA02263543056070BD4163704781632E
:103140007047C1637047016470470A460021018BD4
:103150004FF68F7319401143018370470A460021CF
:10316000018B48F6FF7319404FF6FF7303EA022301
:103170001943018370470A460021818B4FF68F73F4
:1031800019401143818370470A460021818B48F61C
:10319000FF7319404FF6FF7303EA0223194381833B
:1031A00070470A460021018B4FF6F773194011430F
:1031B000018370470A460021018B4FF2FF731940CB
:1031C0004FF6FF7303EA02231943018370470A464F
:1031D0000021818B4FF6F7731940114381837047AB
:1031E0000A460021818B4FF2FF7319404FF6FF739F
:1031F00003EA02231943818370470A460021018BA9
:103200004FF6FB7319401143018370470A460021B2
:10321000018B4FF6FF3319404FF6FF7303EA022389
:103220001943018370470A460021818B4FF6FB73D7
:1032300019401143818370470A460021818B4FF664
:10324000FF3319404FF6FF7303EA022319438183CA
:1032500070470A460021018B4FF67F7319401143D6
:10326000018370470A460021018BC1F30E014FF61E
:10327000FF7303EA02231943018370470A460021C2
:10328000818B4FF67F7319401143818370470A4643
:103290000021818BC1F30E014FF6FF7303EA022375
:1032A0001943818370470A460021018C4FF6FD7354
:1032B00019401143018470470A460021018C4FF6E2
:1032C000F77319401143018470470A460021018CAD
:1032D0004FF6DF7319404FF6FF7303EA02131943E9
:1032E000018470470A460021018C4FF67F73194014
:1032F0004FF6FF7303EA02131943018470470A462D
:103300000021018C4FF6FF5319404FF6FF7303EA7B
:1033100002231943018470470A460021018C4FF2B1
:10332000FF7319404FF6FF7303EA02231943018428
:1033300070470A460021018C4DF6FF7319404FF685
:10334000FF7303EA023319430184704730B5002349
:1033500001248C40A3B2048C9C430484048C02FAA4
:1033600001F5ADB22C43048430BD30B500230424F4
:103370008C40A3B2048C9C430484048C02FA01F5B3
:10338000ADB22C43048430BD828B4FF2FF331A4020
:103390008283828B4FF6FF7303EA01231A438283F1
:1033A0007047F0B50C461546002100220026078C18
:1033B0004EF6FF7C07EA0C070784818B028C4FF6E0
:1033C000FF7707EA043640F6FF4739404FF6FF77AC
:1033D00007EA052739434FF6FF7707EA03373943F2
:1033E00045F6FF773A4046F480573A43818302849A
:1033F000F0BD828B4FF6F3731A408283828B0A43AF
:1034000082837047F0B50C46154600210022002645
:10341000078C4FF6FF6C07EA0C070784818B028C40
:103420004FF6FF7707EA04264FF60C7739404FF640
:10343000FF7707EA03172F4339434FF2FF573A400C
:1034400046F480773A4381830284F0BD028B4FF2C9
:10345000FF331A400283028B4FF6FF7303EA012306
:103460001A4302837047F0B50C461546002100222E
:103470000026078C4FF6EF7C07EA0C070784018BC8
:10348000028C4FF6FF7707EA041640F6FF473940F3
:103490004FF6FF7707EA033739434FF6FF7703E02C
:1034A000000001400004014007EA052739434FF6B8
:1034B0005F773A4046F010073A4301830284F0BD3B
:1034C000028B4FF6F3731A400283028B0A43028386
:1034D0007047F0B50C46154600210022068C4FF6C9
:1034E000FE773E400684018B028C4FF60C7631400D
:1034F0007E1C06EA03162E4331434FF6F576324022
:1035000044F00106324301830284F0BD70B50546E4
:103510000C46208850B92389A28861882846FFF785
:10352000D8FFE1882846FFF7CBFF25E02088042854
:103530000AD12389A28861882846FFF794FFE18891
:103540002846FFF783FF17E0208808280AD123893F
:10355000A28861882846FFF755FFE1882846FFF7D3
:1035600048FF09E02389A28861882846FFF719FFF0
:10357000E1882846FFF708FF70BD002101804180E7
:10358000012181800021C180018170472DE9F04136
:1035900005460C4600260127608808B9022600E08F
:1035A0000026A088012801D1022700E001272088F9
:1035B000A0B92389A28861882846FFF78AFFE1889D
:1035C0002846FFF77DFF23893A4631462846FFF714
:1035D0004AFFE1882846FFF739FF13E02389A288D4
:1035E00061882846FFF73FFFE1882846FFF72EFF56
:1035F00023893A4631462846FFF76BFFE188284683
:10360000FFF75EFFBDE8F0810146486B7047014659
:10361000886B70470146C86B70470146086C70475D
:103620000A884B881A438B881A43CB881A430B8924
:103630001A434B891A438B891A43A0F844207047D8
:103640000021018041808180C1800181418181818F
:10365000704731B1B0F8442042F40042A0F8442051
:1036600005E0B0F84420C2F30E02A0F844207047F1
:1036700021B1828842F00402828004E082884FF601
:10368000FB731A408280704721B1828842F00102A8
:10369000828004E082884FF6FE731A408280704771
:1036A0001AB183890B43838102E083898B43838131
:1036B00070478182704702460020138A0B400BB18D
:1036C000012000E000207047CA430282704730B5F5
:1036D0000246002000230024158A05EA010395898B
:1036E00005EA010413B10CB1012000E0002030BD57
:1036F000CA430282704741EA0203A0F8483070478B
:103700001AB183890B43838102E083898B438381D0
:10371000704721B1828842F00802828004E08288EA
:103720004FF6F7731A408280704701894FF6F8729E
:103730001140018170470A46002101894FF68F73BD
:10374000194011430181704730B504460D462946A2
:103750002046FFF7F0FF208940F00700208130BDB0
:103760002DE9F04104460D4616461F46602D06D150
:103770003B46012231462046FFF775FE05E03B46F9
:10378000012231462046FFF7A4FE29462046FFF7D6
:10379000D2FF208940F007002081BDE8F08130B5DC
:1037A0000C4600210189C9B24FF6FF7505EA0325D1
:1037B000154325432943018130BD2DE9F0410546DC
:1037C0000E4617469846002443463A463146284658
:1037D000FFF7E5FF2C894FF6F870044044F007042A
:1037E0004FF68F70044044F070042C81BDE8F081E6
:1037F000F0B504460D4616461F463B46324629465E
:103800002046FFF7CCFF208940F480402081F0BDA6
:1038100082884FF68F731A40828082880A438280A2
:10382000704702894FF6F8731A40028102890A43F1
:103830000281704702894FF67F731A400281028924
:103840000A4302817047F0B50C4615461E4600211A
:10385000002200230189028B038C4FF6F877394050
:1038600021434FF6FC473A4040F201173A434FF6E6
:10387000DD773B404FF6FF7707EA06172F433B43C0
:10388000018102830384F0BD21B1828842F080026D
:10389000828004E082884FF67F731A4082807047EE
:1038A000A0F850107047000030B5034605E013F84B
:1038B000010B80EA0204FC48025D081EA1F101012F
:1038C000F5D1104630BD70B505460C4600260DB149
:1038D000022C01DC002070BD611EFF222846FFF78C
:1038E000E3FF0646601E285CB04201D10120F2E7EA
:1038F0000020F0E770B505460C4600260DB1022CFD
:1039000000D870BD611EFF222846FFF7CDFF064696
:10391000601E2E5400BFF4E730B5034613B94FF6CE
:10392000FF7030BD09E013F8014B82EA0400C0B219
:10393000DE4D35F8100080EA2222081EA1F10101B7
:10394000F1D11046EDE770B505460C4600260DB1E5
:10395000022C01D8002070BDA11ED548028828463F
:10396000FFF7DAFF0646F1B2A01E285C814206D1BD
:10397000601E285CB0EB162F01D10120EBE7002080
:10398000E9E770B505460C4600260DB1022C00D8BB
:1039900070BDA11EC64802882846FFF7BDFF064637
:1039A000A01E2E54310A601E295400BFF0E71FB537
:1039B00001210220FDF725FF4FF4FA60029042F248
:1039C000CF00ADF804000020ADF80600ADF80C0003
:1039D00001A9B848FFF7C3F901221146B548FFF71E
:1039E0005FFE0121B348FFF743FA0121B148FFF719
:1039F0006BFE1D208DF8000001208DF801000320D2
:103A00008DF8020001208DF803006846FDF721FBC8
:103A10001FBD00B587B00121A748FDF7A9FE012110
:103A20004804FDF7EEFE07220221A448FDF78DFCB5
:103A300007220321A148FDF788FCA148FDF7ECFF10
:103A40000C20059002208DF8180000208DF81A0037
:103A500003208DF8190000208DF81B0005A9974858
:103A6000FDF7E8FB4FF4E13001900020ADF80800CD
:103A7000ADF80A00ADF80C000C20ADF80E000020E7
:103A8000ADF8100001A98E48FEF72DF801218C48F1
:103A9000FEF7B1F826208DF8000002208DF8010015
:103AA0008DF8020001208DF803006846FDF7D1FA79
:103AB000012240F225518248FEF753F9FFF777FFC4
:103AC00080A000F0DBFF07B000BD00B595B040F26C
:103AD00025517B48FEF780F9002864D07848FDF72F
:103AE0009BFF0320FCF798FC01214805FDF740FEF1
:103AF0004FF4E13002900020ADF80C00ADF80E005C
:103B0000ADF810000C20ADF812000020ADF8140044
:103B100002A96B48FDF7E7FF01216948FEF76BF842
:103B2000012240216648FEF713F910208DF80400A9
:103B300002208DF805008DF8060001208DF80700A1
:103B400001A8FDF786FA6648FEF788FE4FF0006090
:103B500006905B48001D079062480890002009907D
:103B60004FF47A700A9000200B904FF480600C9014
:103B700000200D900E904FF480700F900002109076
:103B80000020119012901390149006A95448FEF74B
:103B900007FF012210215248FEF7C9FF01215048BA
:103BA000FEF738FF00BF15B000BD70B52DED0C8BD2
:103BB0004D494B48FEF7D8FF002873D04B49484881
:103BC000FEF7A1FF48494648FEF7F8FF002418E336
:103BD0004448005DA5283FD14249A01D085C00284B
:103BE000F9D1601D085C032804D141480068401CDD
:103BF0003F4908603B49601D085C01282DD104F154
:103C00001400642829DAE01D095C364A401C105C67
:103C100041EA002037490880114604F10A00085C97
:103C200034490871114604F10B00095C401C105C1A
:103C300041EA00202F494880114604F10D00095C3B
:103C4000401C105C41EA00202A49A1F805002A48DE
:103C50000088401C28490880D1E22249601D085C88
:103C6000022803D104F10B006428F5DB1D49601D17
:103C7000085C03287ED104F10F0064287ADAE01D85
:103C8000085C1E490870174904F10800085C1B49CC
:103C90004870144A04F10C01515C01F0800111B923
:103CA00001212FE0B0E22BE0C75A0008C85B0008F2
:103CB000C600002000040040010020000000024077
:103CC000004400404A756467655F496E69743A2034
:103CD0004163636F6D706C69736865640D0A000001
:103CE0008860024090030020008800200008002027
:103CF000C0000020A8000020B8000020B200002072
:103D00004FF0FF31084600F0EBFC41EC190BFE4A86
:103D100004F10B01515C01F08005E91705EB5161DD
:103D2000CA11F94B04F10C01595C01F07F0102EB5F
:103D30004101A1F17F0000F0D3FC41EC1D0BB0EE7E
:103D40004D1AF0EE6D1A9FEDF10B00F0C1FEB0EED2
:103D500040BAF0EE60BAEC4904F10900085C00EEEC
:103D6000100AB8EE400A9FEDEB1AC0EE010A04F10A
:103D70000A0000E036E0085C00EE100AB8EE400AE7
:103D800030EE800A9FEDE31AC0EE010A04F10B0049
:103D9000085C00F07F0000EE100AB8EEC00A30EEBA
:103DA000800A9FEDDD1AC0EE010AB7EE000A30EE80
:103DB000800A10EE106A304600F0C2FC41EC1C0B89
:103DC00053EC1B2B00F0ABFB41EC1A0B53EC192B03
:103DD00000F0A5FB41EC180B00F0C5FCCF49C1F881
:103DE00002000CE2C849601D085C0428F9D104F106
:103DF0001E006428F5DA0A4604F10A01515C01F05C
:103E0000800109B9012101E04FF0FF31084600F0BF
:103E100067FC41EC190BBC4A04F10901515C01F04B
:103E20008005E91705EB5161CA11B74B04F10A018E
:103E3000595C01F07F0102EB4101A1F17F0000F02C
:103E40004FFC41EC1D0BB0EE4D1AF0EE6D1A9FEDDC
:103E5000AF0B00F03DFEB0EE40BAF0EE60BAAA49FA
:103E6000E01D085C00EE100AB8EE400A9FEDA91AAA
:103E7000C0EE010A04F10800085C00EE100AB8EE7A
:103E8000400A30EE800A9FEDA31AC0EE010A04F149
:103E90000900085C00F07F0000EE100AB8EEC00ACE
:103EA00030EE800A9FED9C1AC0EE010AB7EE000AC0
:103EB00030EE800A10EE106A304600F041FC41EC12
:103EC0001C0B53EC1B2B00F02AFB41EC1A0B53ECA0
:103ED000192B00F024FB41EC180B00F044FC904936
:103EE0000860894A04F10E01515C01F0800109B9B2
:103EF000012101E04FF0FF31084600F0F1FB41ECF9
:103F0000190B814AE11C515C01F08005E91705EBB2
:103F10005161CA117C4B04F10E01595C01F07F0123
:103F200002EB4101A1F17F0000F0DAFB41EC1D0B37
:103F3000B0EE4D1AF0EE6D1A9FED740B00F0C8FD57
:103F4000B0EE40BAF0EE60BA6F4904F10B00085CC5
:103F500000EE100AB8EE400A9FED6E1AC0EE010A9C
:103F600004F10C00085C00EE100AB8EE400A30EED6
:103F7000800A9FED681AC0EE010A04F10D00085C8A
:103F800000F07F0000EE100AB8EEC00A70EE800A62
:103F90009FED611A80EE810AF7EE000A30EE200AEA
:103FA00010EE106A304600F0CBFB41EC1C0B53ECDA
:103FB0001B2B00F0B4FA41EC1A0B53EC192B00F058
:103FC000AEFA41EC180B00F0CEFB554948604E4A62
:103FD00004F11201515C01F0800109B9012101E0F5
:103FE0004FF0FF31084600F07BFB41EC190B464ACD
:103FF00004F11101515C01F08005E91705EB5161F5
:10400000CA11414B04F11201595C01F07F0102EB2E
:104010004101A1F17F0000F063FB41EC1D0BB0EE0C
:104020004D1AF0EE6D1A9FED390B00F051FDB0EE18
:1040300040BAF0EE60BA344904F10F00085C00EEBB
:10404000100AB8EE400A9FED331AC0EE010A04F1DF
:104050001000085C00EE100AB8EE400A30EE800A4C
:104060009FED2C1AC0EE010A04F11100085C00F06B
:104070007F0000EE100AB8EEC00A70EE800A9FEDD5
:10408000261A80EE810AF7EE000A30EE200A10EEC2
:10409000106A304600F054FB41EC1C0B53EC1B2B18
:1040A00000F03DFA41EC1A0B53EC192B00F037FAF3
:1040B00041EC180B00F057FB19498860124A04F1D3
:1040C0001601515C01F0800109B9012101E04FF0B6
:1040D000FF31084600F004FB41EC190B0A4A04F1D9
:1040E0001501515C01F08005E91705EB5161CA111A
:1040F000054B04F11601595C01F07F0102EB41010F
:10410000A1F17F000EE000009003002000000000FD
:10411000000000400000804300000043B200002087
:104120008407002000F0DCFA41EC1D0BB0EE4D1AC4
:10413000F0EE6D1A1FED0B0B00F0CAFCB0EE40BAAA
:10414000F0EE60BA8C4904F11300085C00EE100A2E
:10415000B8EE400A1FED111AC0EE010A04F1140076
:10416000085C00EE100AB8EE400A30EE800A1FED3F
:10417000171AC0EE010A04F11500085C00F07F0078
:1041800000EE100AB8EEC00A70EE800A1FED1E1A8B
:1041900080EE810AF7EE000A30EE200A10EE106A77
:1041A000304600F0CDFA41EC1C0B53EC1B2B00F019
:1041B000B6F941EC1A0B53EC192B00F0B0F941ECB5
:1041C000180B00F0D0FA6D49C8606B4904F1170074
:1041D000095C694A401C105C41EA0020674908827A
:1041E000114604F11800095C401C105C41EA0020F3
:1041F0006249488262484088401C61494880601C8E
:10420000C4B2642CFFF6E4ACBDEC0C8B70BD10B5F1
:104210005A48008A00125B4908705848007C487070
:104220000D2088700A20C8700846FCF79FFA10BD60
:104230005549087070475448007870474F48008AC5
:10424000B0F5FA7F02DA4D48008A70470020FCE79B
:104250004E48007970472DE9F04106460C464C481F
:1042600000210160017104F1090087B2A5204849CD
:1042700008700D2048700020887046480078C8708B
:1042800044480078401C4349087005214048FFF726
:1042900031FB00203E494871012088712246314699
:1042A0003B48C01D00F082F804F109013848FFF7CF
:1042B00068FB00250CE03648415D3748FDF7C6FC39
:1042C00000BF40213448FDF771FD0128F9D16D1C74
:1042D000BD42F0DBBDE8F081012804D0022806D001
:1042E00003280CD107E02D4981ED000A08E02B4995
:1042F00081ED010A04E0294981ED020A00E000BFD6
:1043000000BF704700B5264890ED000AB8EEC00A1D
:104310000120FFF7E1FF00BD10B501212148FFF7A3
:10432000D6F9012812D101211E48FFF7E1F9012138
:104330001C48FFF7C9F9FFF7E5FF0D2217491A4896
:1043400000F034F80D211848FFF785FF10BD05284F
:1043500000DD704739B9114A127B012383409A432B
:104360000E4B1A7306E00D4A127B012383401A4359
:104370000A4B1A7300BFECE790030020840700206B
:10438000B800002078070020C4000020A80000200A
:10439000B5070020C8000020004400409807002016
:1043A000C000002000040040A807002040EA0103EC
:1043B0009B0703D009E008C9121F08C0042AFAD2DB
:1043C00003E011F8013B00F8013B521EF9D270479F
:1043D0002DE9FE4F804681EA0300C00F0C46009095
:1043E00021F0004123F00045B8EB0200A94105D2BD
:1043F0004046214690461C460B46024623F00040AC
:10440000104347D0270DC7F30A00C3F30A510290A7
:10441000401A019040286BDAC3F3130040F4801B6C
:104420000098924620B10023D2EB030A63EB0B0BFA
:1044300001985946C0F14002504600F0C6F90646C0
:104440000D4650465946019A00F0DEF910EB08007F
:104450006141002487EA115284EAE7731A4340D08D
:10446000009A62B3019A012A4FEA075215DC001B39
:1044700061EB02014FF0004202EA0752CDE900422F
:10448000001C41F5801132462B4600F015FA03B0AE
:10449000BDE8F08F40462146F9E7001B61EB0201C1
:1044A000001C41F5801300185B412018A2F500178D
:1044B00047EB030140EAD570B6196D4111E06D0874
:1044C0004FEA360645EAC0754FEA0752001B61EB1A
:1044D0000201001C41F5801149084FEA3000001923
:1044E000514132462B4603B0BDE8F04F00F0D5B93C
:1044F0000098012240000023D0EB020263EBE0733E
:10450000009821464FEAE074B8EB000061EB04012B
:10451000E9E783F000435BE781F0004158E72DE9CC
:10452000FE4F81EA030404F0004421F000410094AE
:104530004FF0000B23F0004350EA01045ED052EA32
:1045400003045BD0C3F30A54C1F30A552C44A4F20C
:10455000F3340194A0FB0254C1F3130141F4801120
:10456000C3F3130343F4801301FB024400FB034E27
:10457000840A970A44EA815447EA8357A4FB0768F0
:1045800002958D0A05FB07854FEA932C04FB0C541A
:104590002705029D4FEA065847EA1637B5EB08058E
:1045A0006EEB070C870E920E47EA811742EA8312E0
:1045B000A7FB0201B6EB0B0164EB00042B0D43EAF1
:1045C0000C335E1844EB1C50DA465146E7FB0201FF
:1045D000C5F313044FEA0B3343EA14534FEA043292
:1045E000019C43EA0603A4F10C040294009CCDE96B
:1045F00000B400F061F903B0BDE8F08F002001467F
:10460000F9E72DE9F04D81EA030404F0004B21F0B5
:10461000004514464FF0000A23F0004150EA05021D
:1046200020D054EA01021DD0C5F30A570246C5F353
:104630001303C1F31300C1F30A5640F4801543F489
:104640008013A7EB0608101BD64608F2FD3873EB63
:10465000050002D308F1010801E092185B41B8F1AE
:10466000000F03DA00200146BDE8F08D00204FF472
:104670008011064684460EE0171B73EB050705D331
:10468000121B63EB050306434CEA010C49084FEA91
:10469000300092185B4150EA0107EDD152EA030065
:1046A00012D082EA040083EA0501084305D0101BFA
:1046B000AB4106D20122002306E000224FF0004366
:1046C00002E06FF0010253101AEB06004CEB0851A8
:1046D00010EB0A0041EB0B01BDE8F04D00F0DDB836
:1046E0000EB5C10F80EAE0700844CA07002140F20D
:1046F00033438DE80E000A460B4600F0DDF803B0A8
:1047000000BD70B5C1F30A5201F000450024C1F3A9
:10471000130140F2FF3341F480119A4201DA002084
:1047200070BD40F233439A42A2F2334203DC52425C
:1047300000F05AF800E090402C43F1D0404270BDA8
:1047400000F0004230F000400AD0C10D01F5607168
:10475000C0F3160042EA0151C208400711437047F6
:1047600000200146704701F0004330B421F00041C1
:1047700050EA010206D00A0DA2F56072C1F31301DE
:10478000002A02DC30BC00207047440F44EAC10418
:10479000C100E01830BC00EBC25000F047B830B5A3
:1047A0000B46014600202022012409E021FA02F5EF
:1047B0009D4205D303FA02F5491B04FA02F5284489
:1047C000151EA2F10102F1DC30BD202A04DB203AE3
:1047D00000FA02F1002070479140C2F1200320FA54
:1047E00003F3194390407047202A04DB203A21FA52
:1047F00002F00021704721FA02F3D040C2F12002FA
:104800009140084319467047202A06DBCB17203A0F
:1048100041FA02F043EAE07306E041FA02F3D040C5
:10482000C2F1200291400843194670470029A8BFF1
:104830007047401C490008BF20F00100704710B4C9
:10484000B0FA80FC00FA0CF050EA010404BF10BC7E
:10485000704749B1CCF1200421FA04F411FA0CF1AB
:1048600018BF012121430843A3EB0C01CB1D4FEAE4
:1048700000614FEA102042BF002010BC704700EBDF
:10488000C35010440029A4BF10BC7047401C49000D
:1048900008BF20F0010010BC704710B5141E73F162
:1048A000000408DA401C41F1000192185B411A43F0
:1048B00001D120F0010010BD2DE9F04D92469B463C
:1048C00011B1B1FA81F202E0B0FA80F220329046E2
:1048D000FFF77BFF04460F4640EA0A0041EA0B015E
:1048E00053465A46084313D0114653EA010019D0E3
:1048F000C8F140025046FFF777FF05460E46504686
:1049000059464246FFF761FF084305D0012004E005
:1049100020463946BDE8F08D0020054346EAE076A2
:104920002C4337430A986305E40AA0EB08000022F1
:10493000FD0A44EA47540A3002D500200146E9E75F
:10494000010510196941DDE9084500196941BDE813
:10495000F04DA2E770B521F0004303430CD0C1F342
:104960000A550024D5EB040564EB0403D617AD1AF1
:10497000B34102DB0020014670BD201841EB02511B
:1049800070BD000030B5041E71F1000404DB4FF06F
:104990000044404264EB0101141E73F1000405DB86
:1049A0001C464FF00043524263EB0403994208BF98
:1049B000904230BD064C074D06E0E06840F0010330
:1049C00094E8070098471034AC42F6D3FBF7E0FBBD
:1049D000585E0008785E00082DE9F04D00231A4665
:1049E0001B1A8A4103DB00200146BDE8F08DC1F3AC
:1049F0000A52C1F3130141F480154FF0000BD107A7
:104A000002D100186D41521E0027044640F2FF11EA
:104A1000384601EB620A3E468046024600204FF4CB
:104A20008011FFF7E1FEC2197141BB1846EB01008E
:104A3000B4EB030C75EB000C04D3E41A65EB000532
:104A400017460E46241908F101006D4180463428AE
:104A5000E3DDF91946EB0600091BA84103D24FF02C
:104A6000FF32134601E0002213461BEB070046EB22
:104A70000A51BDE8F04DFFF710BF00000FB4054B21
:104A800010B503A9044A029800F030FF10BC5DF88D
:104A900014FB0000550400081800002003B401981E
:104AA0004100009850EAC12018BF04204A0D18BFE9
:104AB00040F0010040F2FF72B2EB515F08BF40F0DE
:104AC0000200012808BF052002B070470000000066
:104AD0002DE9F04D2DED040B2DED0E8B96B0DDE99B
:104AE0002550279CDDF890A025F0004624F00048D2
:104AF000BAF1000F14BF0121002101EB4502FC496E
:104B000053184A1093422AD3002814BF01230023CC
:104B100003EB44030B44F7498B4220D358EA0001CE
:104B20009FEDF59B76D0DFF8D8B35D4503D1BAF1A0
:104B3000000F05D188E0BAF1000F08BF002100D0B6
:104B4000012101EB450111F5001F08D8002814BF11
:104B50000121002101EB440111F5001F0BD99DED4E
:104B6000261B9DED240B16B0BDEC0E8B04B0BDE8EA
:104B7000F04D00F069BE0027002DBCBFE14988451B
:104B800021DAE1498845A8BF02271CDAC3451ADCAF
:104B9000DE4901EB2851142908DDC1F1340220FA65
:104BA00002F101FA02F282420DD108E058B9C1F1D6
:104BB000140228FA02F101FA02F2424503D101F08F
:104BC0000101C1F1020756EA0A0124D1002C22DAC0
:104BD000002D18BF022F01D0012F0AD0022000F0B3
:104BE0007FFE16B0BDEC0E8B04B0BDE8F04D00F0BA
:104BF00013BE022000F074FE00F00EFE51EC100B0C
:104C000081F0004141EC100B16B0BDEC0E8B04B0EE
:104C1000BDE8F08D18E09FEDBEAB9FEDBF8B002887
:104C200071D1B848804522D105F1804010F580103F
:104C300008BFBAF1000F07D0B3450ADC002CA8BFAB
:104C40009DED260BE0DA0DE0B0EE490AF0EE690AC0
:104C5000DAE7002C06DA9DED260B51EC100B81F003
:104C600000416FE0AE48784490ED000BCCE7D845AA
:104C70004DD1002C48DA2EB186423AD1BAF1000F5C
:104C800042D126E0BAF1000F13D0022000F028FE36
:104C900000F0F6FD8DED020B9DED240B8DED000B6C
:104CA00010EE900A039961F31E0003909DED020B34
:104CB000AAE78DED02AB9DED240B1AEE901A10EED3
:104CC000900A8DED000B61F31E0003909DED020B29
:104CD0009AE78DED028B9DED240B18EE901A10EEE5
:104CE000900A8DED000B61F31E0003909DED020B09
:104CF0008AE709DA9DED240B51EC190B53EC102BCC
:104D0000FFF77FFC1EE020E09DED240B7CE7864250
:104D10001BDAB4F1804F0DD0A4F10050B0F1FF5078
:104D200013D1002D11DB9DED240B51EC100B00F085
:104D300093FE07E09DED240B53EC102B51EC100B70
:104D400000F0C2BC41EC100B5EE79DED240B51EC72
:104D5000100B00F075FEBAF1000FCDE90E0142D143
:104D60009FED710B46B3A6F1E040B0F17F600CD02F
:104D70005E4538D1002D00DAA7B3022F0CBF012009
:104D80004FF0FF30FFF7ACFCDCE7002D01DD002C1D
:104D90000DDA002D01DD002C1FDB002D16DA002CB2
:104DA00014DB012F08BF9FED620B3FF42DAFB0EE77
:104DB0004A0AF0EE6A0A27E7022F18BF002D0CD02E
:104DC000012F0AD1002DFFF61FAF06E0002DB8BF5E
:104DD000002C08DA012F3FF417AFB0EE480AF0EECE
:104DE000680A11E71BE0012000EBE57050EA0701BB
:104DF00015D0791EB0EE498AF0EE698A084308BFE3
:104E00009FED4D8B4E480025804570DD4D494E4845
:104E1000884514DDB0420DDB002C19DB2FE00120AA
:104E200000F05EFD16B0BDEC0E8B04B0BDE8F04D99
:104E300000F016BDB34502DC002C09DC1FE0864201
:104E400002DA002C1BDA03E05E452BDD002C16DDB8
:104E5000022000F045FD00F013FD8DED020B53EC38
:104E60001A2B51EC180BFFF75AFBCDE900010399FF
:104E7000019861F31E0003909DED020BC4E6022031
:104E800000F02EFD00F00CFD10EE901A18EE900AC6
:104E90008DED020B8DED008B61F31E0003909DEDF7
:104EA000020BB1E69DED0E0B53EC192B51EC100BE0
:104EB000FFF72FFB9FED260BCDE9080153EC102BDC
:104EC0009DED080B51EC100BFFF729FB9FED221B0A
:104ED00053EC112BFFF720FB9DED081B53EC112B1E
:104EE000FFF71DFB9FED1E1B53EC112B3CE08CE0EC
:104EF000FFFF1F00FFFF0F00000000000000F03F59
:104F00000000F03F0000F07F0000404301FCFFFF85
:104F1000000000000000F07F000000000000000022
:104F2000E61100000000000000000000000000800A
:104F3000000000000000F0FF000000000000F0BFD3
:104F40000000E0410000F043FFFFEF3F00000000E1
:104F5000000000000000D03F555555555555D53F30
:104F6000000000000000E03FFFF7D6FA9DED080BBF
:104F700041EC1A0B53EC102B51EC100BFFF7CFFA4E
:104F800053EC1A2BFFF7CBFA41EC1A0B9FEDFE0BFB
:104F900053EC102B9DED080B51EC100BFFF7BFFAF3
:104FA00041EC1B0B9FEDFA0B51EC1A0B53EC102B41
:104FB000FFF7B5FA41EC1A0B9FEDF70B53EC102BF2
:104FC0009DED080B51EC100BFFF7A9FA53EC1A2BCF
:104FD000FFF79FFA41EC1A0B51EC1B0B53EC1A2B09
:104FE000FFF7F6F90690CDE906519DED060B53EC5F
:104FF0001B2B51EC100BFFF78CFA53EC1A2BFFF71D
:105000008BFA41EC100B00F0A1B90020B6F5801F1F
:105010000EDA9FEDE30B53EC102B9DED0E0B51ECD4
:10502000100BFFF77CFACDE90E016FF034000E464D
:1050300000EB2650A0F2FF37C6F31300DA4940F028
:105040007F6646F040568842D8BF002408DDD74925
:105050008142C8BF012403DC0024A6F580167F1C12
:10506000D348784400EBC4000F9690ED00CB9DED43
:105070000E0B53EC1C2B51EC100BFFF74AFA9DED75
:105080000E0B41EC1B0B53EC1C2B51EC100BFFF7E0
:105090009FF941EC100B51EC190B53EC102BFFF75F
:1050A000B0FA41EC1D0B51EC1B0B53EC1D2BFFF721
:1050B00036FA41EC1A0BBF488DED10AB78441095D1
:1050C00090ED000B4FF0005040EA660000EB84408A
:1050D0008DED080B00F5002009909DED080B53ECB9
:1050E0001C2B51EC100BFFF714FA9DED0E1B53EC2B
:1050F000112BFFF711FA41EC100B53EC102B9DED27
:10510000100B51EC100BFFF70AFA9DED080B41EC68
:105110001C0B53EC102B9DED100B51EC100BFFF7FB
:10512000FEF953EC1B2BFFF7F7F953EC1C2BFFF7A1
:10513000F0F953EC1D2BFFF7F2F941EC1C0B53EC8B
:105140001A2B51EC1A0BFFF7EAF941EC1B0B9A48AA
:105150000621B0EE4B0AF0EE6B0A784400F0E0FA5C
:10516000B0EE401AF0EE601AB0EE41DAF0EE61DA1D
:1051700053EC1B2B51EC1B0BFFF7D1F953EC1D2B00
:10518000FFF7CDF99DED100B41EC1B0B53EC1A2BE7
:1051900051EC100BFFF71CF953EC1C2BFFF7BFF978
:1051A00053EC1B2BFFF714F99DED100B41EC1B0B7F
:1051B00053EC102B51EC100BFFF7B1F941EC1D0B28
:1051C0009FED7FEB53EC1E2BFFF702F953EC1B2BEB
:1051D000FFF7FEF80890CDE908519DED080B53EC60
:1051E0001E2B51EC100BFFF794F953EC1D2BFFF71E
:1051F00090F953EC1B2BFFF78FF99DED080B41EC59
:105200001D0B53EC102B9DED100B51EC100BFFF709
:1052100086F941EC1B0B53EC1A2B51EC1D0BFFF7DD
:105220007EF99DED080B41EC1A0B53EC102B51EC61
:105230001C0BFFF774F953EC1A2BFFF7C9F841EC7C
:105240001A0B51EC1B0B53EC1A2BFFF7C1F80C9007
:10525000CDE90C519DED0C0B53EC1B2B51EC100BBD
:10526000FFF757F953EC1A2BFFF756F941EC1B0BDC
:105270009FED550B53EC102B9DED0C0B51EC100BCF
:10528000FFF74DF941EC1A0B9FED510B51EC1B0B45
:1052900053EC102BFFF743F941EC1B0B9FED4E0B2A
:1052A00053EC102B9DED0C0B51EC100BFFF737F965
:1052B00053EC1B2BFFF78CF841EC100B484878445B
:1052C00000EBC40090ED001B51EC100B53EC112BC4
:1052D000FFF77EF841EC1B0B3846FFF701FACDE9EA
:1052E000080153EC1B2B51EC1A0BFFF771F841EC42
:1052F000100B3C48784400EBC40090ED00CB51EC1F
:10530000100B53EC1C2BFFF763F89DED081B53ECBF
:10531000112BFFF75DF80690CDE906519DED080BC6
:1053200053EC102B9DED060B51EC100BFFF7F1F831
:1053300053EC1C2BFFF7EDF853EC1A2BFFF7E9F8B1
:1053400053EC1B2BFFF7E8F841EC100B9DED261BEF
:1053500053EC102B8DED001B00959DED260B51ECB1
:10536000100BFFF7DCF89DED000B41EC1A0B53EC32
:10537000102B9DED260B51EC100BFFF7CAF89DED9D
:10538000061B53EC112B2FE0000000604715F73F80
:10539000FE822B654715F73F44DF5DF80BAE543EA8
:1053A00000000000000040438E9803007AB60B0016
:1053B000620D0000900D00009A0C0000000000003B
:1053C0000000000000000840000000E009C7EE3FB8
:1053D000FD033ADC09C7EE3FF5015B14E02F3EBE4A
:1053E000260B0000E00A0000FFF799F853EC1A2B97
:1053F000FEF7EEFF9DED060B41EC1A0B53EC102B64
:105400009DED000B51EC100BFFF789F8CDE90C0175
:105410009DED0C0B51EC1A0B53EC102BFEF7D8FF43
:10542000CDE902010C46AA498C422FDB611A0843E0
:1054300018D19DED0C0B53EC102B9DED020B51EC94
:10544000100BFFF766F841EC1B0B9FEDA30B51EC23
:105450001A0B53EC102BFEF7BBFF53EC1B2BFFF783
:1054600091FA2DD2022000F03BFA00F009FA10EE7A
:10547000901A18EE900A8DED020B8DED008B61F302
:105480001E0003909DED020BFFF7BEBB944A24F073
:105490000041914214D39349214408437FF4EFAC77
:1054A0009DED0C0B53EC102B9DED020B51EC100BF2
:1054B000FFF72FF853EC1A2BFFF764FA7FF6DFACF7
:1054C00024F000408849894A002601EB205182429D
:1054D0002BDA481C4FF4801121FA00F02044844A52
:1054E000C0F30A517A44A1F2FF3192ED000B814AD8
:1054F0008DED080BCA4020EA0202C0F3130040F40D
:105500008010C1F1140120FA01F60992002CB8BFF5
:1055100076429DED080B53EC102B9DED0C0B51ECDE
:10552000100BFEF7F6FFCDE90C019DED0C0B51ECD5
:105530001A0B53EC102BFEF74BFF9FED6F0B0890EF
:10554000CDE9085153EC102B9DED080B51EC100BDD
:10555000FEF7E5FF41EC1B0B9FED690B53EC102BA5
:105560009DED080B51EC100BFEF7D9FF9DED0C0BD8
:1055700041EC1C0B53EC102B9DED080B51EC100B68
:10558000FEF7C7FF53EC1A2BFEF7C6FF9FED5E1B1D
:1055900053EC112BFEF7C3FF53EC1C2BFEF718FF47
:1055A00041EC1A0B51EC1B0B53EC1A2BFEF710FFBE
:1055B000CDE902019DED020B53EC1B2B51EC100BBE
:1055C000FEF7A7FF53EC1A2BFEF7A6FF9DED020B8B
:1055D00041EC1A0B53EC102B51EC100BFEF79FFF14
:1055E000CDE908014A489DED080B0521784400F0FB
:1055F00097F89DED081B51EC100B53EC112BFEF7A7
:105600008EFF9DED021B53EC112BFEF785FFCDE9BC
:1056100006019DED020B53EC1A2B51EC100BFEF71B
:105620007EFF53EC1A2BFEF7D3FE9FED3B0B41ECB4
:105630001A0B53EC102B9DED060B51EC100BFEF7E3
:1056400068FF9DED060B41EC1B0B53EC102B9DED01
:10565000020B51EC100BFEF762FF53EC1B2BFEF715
:10566000D0FF53EC1A2BFEF754FF9DED021B53ECB9
:10567000112BFEF74EFF53EC192BFEF74DFFCDE932
:10568000020101EB065001150029C8BF039015DC8B
:105690009DED020B324651EC100BFFF75BF9FFF763
:1056A000FDF9042808BF00F0FBF832469DED020B1F
:1056B00051EC100BFFF74EF9CDE902019DED020B05
:1056C00051EC180B53EC102BFEF729FFFFF73ABBF8
:1056D0000000904000000000FE822B654715973CBB
:1056E00000CC904000346F3F01FCFFFF0000E03F22
:1056F00068090000FFFF0F0000000000432EE63F96
:10570000396CA80C615C20BEEF39FAFE422EE63FF0
:105710003808000000000000000000000000004009
:1057200070B504462DED028B4D1E00EBC500B0EEAA
:10573000408AF0EE608A90ED000B35F0060017D03D
:1057400053EC182B51EC100BFEF7E9FE41EC100B5B
:105750006D1E04EBC50090ED001B51EC100B53ECDB
:10576000112BFEF735FE41EC100B35F00600E7D1AA
:10577000022D36D0042D1CD0062D1CBFBDEC028B93
:1057800070BD53EC182B51EC100BFEF7C8FE94EDD6
:105790000A1B53EC112BFEF71BFE53EC182BFEF7E4
:1057A000BEFE94ED081B53EC112BFEF711FE41ECED
:1057B000100B53EC182B51EC100BFEF7B0FE94EDD0
:1057C000061B53EC112BFEF703FE53EC182BFEF7D0
:1057D000A6FE94ED040B53EC102BFEF7F9FD41EC03
:1057E000100B53EC182B51EC100BFEF798FE94EDB8
:1057F000021B53EC112BFEF7EBFD53EC182BFEF7BD
:105800008EFE94ED001B53EC112BFEF7E1FDBDEC79
:10581000028B41EC100B70BD9FED070B10B553ECE4
:10582000102B9FED070B51EC100BFEF7EAFE41EC3D
:10583000100B10BD00000000000000000000000080
:10584000000000000000F03F10B553EC112B51ECAC
:10585000100BFEF7BDFD41EC100B10BD0000000069
:105860009FED050B10B553EC102B51EC100BFEF710
:10587000C8FE41EC100B10BD00000000000000004D
:105880009FED050B10B553EC102B51EC100BFEF7F0
:1058900046FE41EC100B10BD00000000000000703F
:1058A0009FED050B10B553EC102B51EC100BFEF7D0
:1058B00036FE41EC100B10BD00000000000000108F
:1058C00002E008C8121F08C1002AFAD170477047C9
:1058D000002001E001C1121F002AFBD17047000027
:1058E0000149086070470000CC0000202DE9FF4FFF
:1058F00089B09B460446002506E025280BD05A4671
:105900000B999047641C6D1C20780028F5D10DB0D0
:105910002846BDE8F08F0027B8460122474900E03D
:10592000074314F8013F203B02FA03F00842F7D185
:1059300020782E2819D114F8010F47F004072A28DF
:105940000ED06FF02F022078A0F1300109290CD879
:1059500008EB880102EB410100EB0108641CF2E74F
:105960000A98641C50F8048B0A9020780028CED046
:10597000642808D0692806D075281ED05A460B998D
:1059800090476D1C58E00A994FF00A0901C90A9125
:10599000002802DA40422D2102E0390504D52B21EE
:1059A0008DF82010012103E0F90704D02021F7E74A
:1059B0008A4608AE0DE00021FAE70A994FF00A097D
:1059C00001C90A91F7E74946FEF7E9FE303106F8CA
:1059D000011D0028F7D1ADEB060000F12009780782
:1059E00001D44FF00108C84502DDA8EB090000E032
:1059F00000208046002706E008A85A46C05D0B99A3
:105A000090476D1C7F1C5745F6DB04E030205A465A
:105A10000B9990476D1CB8F10001A8F10108F5DC65
:105A200005E016F8010B5A460B9990476D1CB9F129
:105A30000001A9F10109F4DC641C65E709280100F3
:105A400082B0CDE9000121F0004001909DED000BF6
:105A500002B051EC100B704700B52DED048B83B0F4
:105A600041EC190BFEF7B8FF41EC180B18EE100AC9
:105A700018EE901A8DED008B002818BF0120084306
:105A800020F00040C0F17F6000F1E040C00F14D072
:105A900019EE101A19EE900A8DED009B002918BF1F
:105AA0000121084320F00040C0F17F6000F1E04098
:105AB000C00F04BF0120FFF713FF51EC180B03B018
:105AC000BDEC048B00BDFF005EBCE2613FDD83C224
:105AD0009C7E20A3FD1F419DC3217FFCA2401E5F31
